:100000001CC0F8C0F7C0F6C0F5C0F4C0F3C0F2C021
:10001000F1C0F0C0EFC0EEC0EDC0ECC0EBC0EAC074
:10002000E9C0E8C0E7C0E6C0E5C0E4C0E3C0E2C0A4
:10003000E1C0E0C03F003F01800011241FBECFEFB0
:10004000CDBFDFE3DEBFE4E3F0E040E017C0B591F1
:10005000A59135912591059107FD0CC0959185914C
:10006000EF01F92FE82F05900D92A217B307D9F7EA
:10007000FE0104C01D92A217B307E1F7E933F407AC
:0A00800031F729D000C0F894FFCF3B
:10008A00CF93DF9395D0C0E0D0E08091003F9E01EE
:10009A00280F311D20FF05C040E060E080E861D0F4
:1000AA0004C040E060E880E05CD02196CA30D10507
:1000BA0061F78091003F882319F01092003F03C036
:0C00CA0081E08093003FDF91CF9108950A
:1000D600C0E0D4E082E089838E8380E88A8388E06A
:1000E6008F8B78D056D0888512E01F838885882329
:1000F60014F4C8DF01C076D02FEF88E09DE32150CD
:0C01060080409040E1F700C00000EFCF07
:10011200FF920F931F93CF93DF93F82E062F142F86
:100122004BD0C6E4D0E0412F602F8F2D08D021970D
:0E013200D1F7DF91CF911F910F91FF900895AB
:10014000E4E0F8E0908195FFFDCF80930208E4E0C1
:10015000F8E0808185FFFDCF60930208E4E0F8E0DD
:0C016000808185FFFDCF409302080895C8
:10016C00FF920F931F93CF93DF93F82E062F142F2C
:10017C00C7E0D0E0412F602F8F2DDCDF2197D1F726
:0C018C00DF91CF911F910F91FF9008951B
:1001980080E480930104109205088093060883E0A8
:1001A8008093070886EB92E08093080890930908EB
:0201B8000895A8
:1001BA00E4E0F8E0808185FFFDCF10920208E4E0D8
:1001CA00F8E0808185FFFDCF86E4809302080895D8
:1001DA0088ED84BFE0E6F0E0108284BF11820895C2
:0A01EA0041E26EE88FEF90DF089508
:0201F40005CF35
:00000001FF
