S0280000617474696E793431322D73696D706C652D77616C6C2D6C65642D736F757263652E7372656318
S113000019C033C032C031C030C02FC02EC02DC083
S11300102CC02BC02AC029C028C027C026C025C098
S113002024C023C022C021C020C01FC01EC01DC0C8
S11300301CC01BC011241FBECFEFCDBFDFE3DEBF4A
S11300401FE3A0E0BFE3E8E1F2E002C005900D92F7
S1130050A830B107D9F72FE3A8E0BFE301C01D9290
S1130060A930B207E1F7B1D0D5C0CACF88ED84BFBB
S1130070E0E6F0E0108284BF1182089580E480936A
S11300800104109205088093060883E08093070812
S113009086EB92E080930808909309080895909164
S11300A0040895FFFCCF809302088091040885FF23
S11300B0FCCF609302088091040885FFFCCF409335
S11300C0020808958091040885FFFCCF109202086D
S11300D08091040885FFFCCF84E68093020808958C
S11300E0CF93DF93EFDFC0E0D0E023C09E01ABEA03
S11300F0BAEA84D0969587959C01220F331F820F0C
S1130100931F9E01281B390BC901892B29F440E058
S113011060E08FEFC4DF0CC02130310529F440E0EA
S11301206FEF80E0BCDF04C04FEF60E080E0B7DF3A
S11301302196C436D105D0F2DF91CF910895FF9274
S11301400F931F93CF93DF93F82E062F142FBADF4C
S1130150C0E0D0E005C0412F602F8F2DA0DF219695
S1130160C436D105C0F3DF91CF911F910F91FF9059
S1130170089540E060E08FEFE2DF089540E06FEF24
S113018080E0DDDF08954FEF60E080E0D8DF089580
S113019041E26EE88FEFD3DF08958091080481FF78
S11301A012C0E091083FE370F0E0EE0FFF1FE05053
S11301B0F14C0190F081E02D09958091083F8F5F0B
S11301C08093083F0895E4DF0895E0E0F4E080E8D8
S11301D08183868382E0828388E0818B47DF4EDFE0
S11301E080E880930704D9DF2FEF8AE197EB215051
S11301F080409040E1F700C00000F2CFA29FB00120
S1130200B39FC001A39F01D0B29F700D811D112423
S10B0210911D0895F894FFCF3D
S10B0218B900BE00C300700030
S9030000FC
