S018000073657269616C2D746F2D7773323831322E7372656398
S11300000C9456000C9473000C9473000C947300BD
S11300100C9473000C9473000C9473000C94730090
S11300200C9473000C9473000C9473000C94730080
S11300300C942F020C9473000C9473000C947300B2
S11300400C9473000C9473000C9473000C94730060
S11300500C9473000C9473000C9473000C94730050
S11300600C9473000C9473000C9473000C94730040
S11300700C9473000C9473000C9473000C94730030
S11300800C9473000C9473000C9473000C94730020
S11300900C9473000C9473000C9473000C94730010
S11300A00C94A7010C9473000C94730011241FBECC
S11300B0CFEFCDBFD7E2DEBF10E2A0E0B0E2E4EACA
S11300C0F4E002C005900D92A032B107D9F726E200
S11300D0A0E2B0E201C01D92A630B207E1F70E948F
S11300E07A010C9450020C940000809108068F71E0
S11300F090E09595879580932120E0912120F0E070
S1130100E05FFF4D808180932820E0912120F0E082
S1130110E050F04E808180930526089588ED84BFD9
S113012082E0809350008091510081FFFCCF88EDE4
S113013084BF81E080934000089587E08093A2000B
S1130140089584E08093620680E38093C20988E185
S11301508093C30983E08093C4098091282080930D
S1130160C609809105268295807F8093C7090895EA
S11301700E947500809128208093C60980910526ED
S11301808295807F8093C7090895E0E0F8E01182AA
S1130190128213821482158283E0868381E0808335
S11301A080E281870895A0E0B1E083EB8C935196BF
S11301B01C92519781E052968C93529753961C92BD
S11301C05397E0ECF8E05C96ED93FC935D979DE427
S11301D054969C93A0E4B6E050961C925097519686
S11301E08C93519783E053968C9353979BE011968D
S11301F09C93A0E8B1E093E69C9318961C92189700
S113020091E616969C9316971E961C9293E19683FC
S11302101782128292EC9483158298E09383E0E62D
S1130220F4E091E1948385838EE9868386E1868771
S11302308DE0848784E4808380E5818380E4828305
S113024080EA83830895E0E0F1E089E290E2808F20
S1130250918F8091262090912720868B978B84E81C
S1130260808B08958091C10985FFFCCF85E580933B
S1130270C0098091C10985FFFCCF80912320809320
S1130280C0098091C10985FFFCCF80912220809311
S1130290C0098091C10985FFFCCF85E58093C00921
S11302A08091C10985FFFCCF809121208093C009F2
S11302B08091C10985FFFCCF85E58093C0090E9428
S11302C0230110922020089580E090E00BC0DC010F
S11302D0A75DBF4D2C91FC01E65DFF4D30813C9341
S11302E0208303962091262030912720821793079C
S11302F070F30895F89488E080936106E0E0F6E0F6
S11303008EE18683809311068093120680931306F0
S11303108093140681E0818385830E948E000E946D
S11303209D000E9475000E94A1000E94D3000E94BB
S1130330C50078940E94B800809120208330E1F7B2
S11303400E9464010E9432010E94B800F5CF1F92FE
S11303500F920FB60F9211242F933F938F939F9375
S1130360EF93FF939091C009809120208130C1F0D8
S113037030F08230D9F1843009F460C062C09093C7
S113038023202091232080E0922F80932620909395
S1130390272081E08093202080E28093080851C0C8
S11303A09093222020912220809126209091272032
S11303B0820F911D809326209093272080912620E0
S11303C0909127209C01220F331F820F931F80934B
S11303D0262090932720109224201092252082E03A
S11303E08093202088E0809309082BC081E08093CB
S11303F00706E0912420F0912520E75DFF4D9083CE
S1130400809124209091252001968093242090931C
S1130410252088E08093090820912420309125200C
S113042080912620909127202817390751F483E0E2
S11304308093202080E28093090803C088E08093A1
S1130440090880E88093C109FF91EF919F918F91F2
S11304503F912F910F900FBE0F901F9018951F92F0
S11304600F920FB60F9211248F9380912020813028
S113047021F080912020823021F484E08093202098
S113048006C080912020843011F41092202081E055
S113049080930C088F910F900FBE0F901F901895AA
S10704A0F894FFCFFA
S11304A40605040003FF02FE01FDFCFBFAF9F90052
S11304B40C0C0C8A0C890C870C837B6B4B390B005A
S9030000FC
