:1000000019C033C032C031C030C02FC02EC02DC087
:100010002CC02BC02AC029C028C027C026C025C09C
:1000200024C023C022C021C020C01FC01EC01DC0CC
:100030001CC01BC011241FBECFEFCDBFDFE3DEBF4E
:100040001FE3A0E0BFE3EAEFF1E002C005900D92EC
:10005000A030B107D9F72FE3A0E0BFE301C01D92A4
:10006000A130B207E1F7A4D0C6C0CACF88ED84BFE3
:10007000E0E6F0E0108284BF1182089580E480936E
:100080000104109205088093060883E08093070816
:1000900086EB92E080930808909309080895909168
:1000A000040895FFFCCF809302088091040885FF27
:1000B000FCCF609302088091040885FFFCCF409339
:1000C000020808958091040885FFFCCF1092020871
:1000D0008091040885FFFCCF86E480930208089590
:1000E000FF920F931F93CF93DF93F82E062F142FB9
:1000F000E9DFC0E0D0E005C0412F602F8F2DCFDFBA
:100100002196C634D105C0F3DF91CF911F910F9195
:10011000FF900895FF920F931F93CF93DF93F82ED4
:10012000062F142FC0E0D0E005C0412F602F8F2D87
:10013000B6DF2196C730D105C0F3DF91CF911F9173
:100140000F91FF900895CF93DF93C091003FBADFE6
:10015000D0E019C0C13049F018F0C23059F00EC0DB
:1001600040E060E080E8D6DF09C040E360E380E380
:10017000D1DF04C040E860E080E0CCDFCF5FC33077
:1001800008F0C0E0DF5FDA3028F38091003F8F5F36
:100190008093003F8091003F833010F01092003F29
:1001A000DF91CF91089541E26EE88FEF99DF0895D6
:1001B000C0E0D4E082E089838E8358DF5FDF80E88F
:1001C0008A8388E08F8B8885882314F0C1E001C082
:1001D000C0E082E080930704CC2311F0B4DF01C0BB
:1001E000E2DF2FEF88E09DE3215080409040E1F76F
:0A01F00000C00000EECFF894FFCF2E
:00000001FF
